S01A000054454D505F53454E534F525F4452495645522E7372656370
S11300000C942A000C9447000C9447000C9447006D
S11300100C9447000C9447000C9447000C94470040
S11300200C9447000C9447000C9447000C94470030
S11300300C9447000C9447000C9447000C94470020
S11300400C9447000C9447000C9447000C94470010
S11300500C94470011241FBECFE5D8E0DEBFCDBF0E
S113006010E0A0E6B0E0EAEEF3E102C005900D92E4
S1130070A637B107D9F710E0A6E7B0E001C01D929A
S1130080A637B107E1F70E94A3060C94F3090C9478
S11300900000369A86B184FFFDCF349884B190E095
S11300A045B1342F20E0822B932B08958FB78068BD
S11300B08FBF339A08958FB78F778FBF3398089582
S11300C0359A8430E9F0853038F4823089F0833011
S11300D098F4813041F509C08630D1F08630A0F023
S11300E08730D1F08830F9F41BC080B780BF089501
S11300F080B7806280BF089580B7806480BF089510
S113010080B7806680BF089580B7806880BF0895F7
S113011080B7806A80BF089580B7806C80BF0895DF
S113012080B7806E80BF089581E460E040E00E9463
S1130130B60081E461E040E00E94B60081E460E042
S113014040E00E94620381E461E040E00E946203B7
S11301503E9A3F9A3098319A329A3D983598379A18
S1130160389839983A983B983C9A0895683008F042
S113017090C0843409F471C0853448F4823499F110
S1130180833408F04DC0813409F083C00FC0823637
S113019051F1833620F4813609F07BC007C08336E1
S11301A009F43EC0843609F074C057C0413069F484
S11301B02AB381E090E0AC0102C0440F551F6A9558
S11301C0E2F7BA01622B6ABB08952AB381E090E09A
S11301D0AC0102C0440F551F6A95E2F7BA0160955D
S11301E062236ABB0895413069F427B381E090E04B
S11301F0AC0102C0440F551F6A95E2F7BA01622BA5
S113020067BB089527B381E090E0AC0102C0440FBE
S1130210551F6A95E2F7BA016095622367BB08959A
S1130220413069F424B381E090E0AC0102C0440F92
S1130230551F6A95E2F7BA01622B64BB089524B393
S113024081E090E0AC0102C0440F551F6A95E2F7CB
S1130250BA016095622364BB0895413069F421B307
S113026081E090E0AC0102C0440F551F6A95E2F7AB
S1130270BA01622B61BB089521B381E090E0AC0127
S113028002C0440F551F6A95E2F7BA0160956223D4
S113029061BB0895683008F090C0843409F471C0DB
S11302A0853448F4823499F1833408F04DC08134A4
S11302B009F083C00FC0823651F1833620F48136B1
S11302C009F07BC007C0833609F43EC0843609F0C8
S11302D074C057C0413069F42BB381E090E0AC01A5
S11302E002C0440F551F6A95E2F7BA01622B6BBB3B
S11302F008952BB381E090E0AC0102C0440F551F78
S11303006A95E2F7BA01609562236BBB08954130A8
S113031069F428B381E090E0AC0102C0440F551F9A
S11303206A95E2F7BA01622B68BB089528B381E0AD
S113033090E0AC0102C0440F551F6A95E2F7BA0180
S11303406095622368BB0895413069F425B381E068
S113035090E0AC0102C0440F551F6A95E2F7BA0160
S1130360622B65BB089525B381E090E0AC0102C027
S1130370440F551F6A95E2F7BA016095622365BB85
S11303800895413069F422B381E090E0AC0102C0E9
S1130390440F551F6A95E2F7BA01622B62BB0895B8
S11303A022B381E090E0AC0102C0440F551F6A956E
S11303B0E2F7BA016095622362BB0895683008F0E1
S11303C04CC0843409F43DC0853440F48234F9F0DF
S11303D0833450F5813409F040C00CC08236B9F042
S11303E0833618F48136C9F505C08336E9F08436BE
S11303F0A1F527C02BB381E090E0AC0102C0440F0B
S1130400551F6A95E2F7BA0162276BBB089528B3BA
S113041081E090E0AC0102C0440F551F6A95E2F7F9
S1130420BA01622768BB089525B381E090E0AC016E
S113043002C0440F551F6A95E2F7BA01622765BBF3
S1130440089522B381E090E0AC0102C0440F551F2F
S11304506A95E2F7BA01622762BB0895683008F032
S11304603FC0843499F1853438F48234D9F083342C
S113047018F58134B9F50CC08236A1F0833618F42E
S1130480813681F505C08336B9F0843659F51EC02E
S113049029B330E0C90102C0959587956A95E2F7C2
S11304A08170089526B330E0C90102C095958795FF
S11304B06A95E2F78170089523B330E0C90102C060
S11304C0959587956A95E2F78170089520B330E099
S11304D0C90102C0959587956A95E2F781700895E0
S11304E080E0089580E008958434D9F0853438F4A8
S11304F0823499F0833498F48134A1F40CC08236A8
S113050061F0833618F4813669F405C0833639F016
S1130510843641F406C06ABB089567BB089564BB82
S1130520089561BB08958434D9F0853438F4823455
S113053099F0833498F48134A1F40CC0823661F0CC
S1130540833618F4813669F405C0833639F084366D
S113055041F406C06BBB089568BB089565BB08955C
S113056062BB08958434D9F0853438F4823499F028
S1130570833498F48134A1F40CC0823661F083365C
S113058018F4813669F405C0833639F0843641F4B1
S113059006C099B305C096B303C093B301C090B32A
S11305A0892F0895843409F1853438F48234A9F00C
S11305B08334B8F48134E1F40CC0823671F08336AC
S11305C018F48136A9F405C0833659F0843681F4D1
S11305D00CC08BB380958BBB089588B3809588BB82
S11305E0089585B3809585BB089582B3809582BBB9
S11305F008956295607F843451F1853438F48234EF
S1130600C1F08334E8F4813441F50CC0823689F0BA
S1130610833618F4813609F505C0833689F08436AB
S1130620E1F415C08BB38F708BBB8BB3682B6BBBA2
S1130630089588B38F7088BB88B3682B68BB08950E
S113064085B38F7085BB85B3682B65BB089582B372
S11306508F7082BB82B3682B62BB08956F70843441
S113066051F1853438F48234C1F08334E8F48134B0
S113067041F50CC0823689F0833618F4813609F5C9
S113068005C0833689F08436E1F415C08BB3807FCE
S11306908BBB8BB3682B6BBB089588B3807F88BBFF
S11306A088B3682B68BB089585B3807F85BB85B309
S11306B0682B65BB089582B3807F82BB82B3682BAD
S11306C062BB08950E944A01089582E462E041E019
S11306D00E94B60082E462E040E00E944A018FE991
S11306E09FE00197F1F700C0000082E462E041E07E
S11306F00E944A018FE19EE40197F1F700C00000D7
S113070082E462E040E00E944A018FE097E20197B0
S1130710F1F700C000000895CF93DF93D82FC62FC0
S113072082E460E040E00E944A0182E461E040E04B
S11307300E944A01CC2389F0C130E9F46D2F6295FF
S11307406F7081E40E94F9020E94650381E46D2FB9
S11307500E94F9020E9465030EC06D2F62956F70AE
S113076081E40E942E030E94650381E46D2F0E94A0
S11307702E030E946503DF91CF9108952FE738E39C
S113078041E0215030404040E1F700C000008823A0
S113079019F0813051F515C081E460E041E00E9418
S11307A0B60081E461E041E00E94B60081E462E0C9
S11307B041E00E94B60081E463E041E00E94B6009B
S11307C014C081E464E041E00E94B60081E465E085
S11307D041E00E94B60081E466E041E00E94B60078
S11307E081E467E041E00E94B60082E461E041E018
S11307F00E94B60082E460E041E00E94B60082E418
S113080062E041E00E94B60082E461E040E00E94C0
S11308104A0182E061E00E948C038FE19EE401972B
S1130820F1F700C0000088E261E00E948C038FE0D1
S113083097E20197F1F700C000008CE061E00E94AC
S11308408C038FE097E20197F1F700C0000081E08C
S113085061E00E948C038FE19EE40197F1F700C0F0
S1130860000086E061E00E948C038FE097E201972C
S1130870F1F700C000000895CF93DF93D82FC62F5F
S113088082E460E041E00E944A0182E461E040E0E9
S11308900E944A01CC2389F0C130E9F46D2F62959E
S11308A06F7081E40E94F9020E94650381E46D2F58
S11308B00E94F9020E9465030EC06D2F62956F704D
S11308C081E40E942E030E94650381E46D2F0E943F
S11308D02E030E946503DF91CF910895CF93DF9398
S11308E0EC018881882339F0219661E00E943C0460
S11308F089918823D1F7DF91CF910895982F915052
S1130900923020F4662311F0613128F080E861E030
S11309100E948C030895813031F4862F815861E060
S11309200E948C030895823029F4862F815461E05B
S11309300E948C0308950E94740208956FEF0E9430
S11309409302089560E00E9493020895CF93C82F04
S11309500E949E048FEF91EEA4E081509040A0404D
S1130960E1F700C000008C2F0E94A2048FEF91EEEB
S1130970A4E081509040A040E1F700C00000CF9176
S113098008950E94B2020895CF93DF93CDB7DEB7E6
S11309902A970FB6F894DEBF0FBECDBFDE011196C5
S11309A0E0E6F0E09AE001900D929150E1F7843492
S11309B039F1853438F48234B9F08334D8F481348D
S11309C021F50CC0823681F0833618F48136E9F4BF
S11309D005C0833679F08436C1F412C0FE01E60FF7
S11309E0F11D81818BBB11C0FE01E60FF11D8181D8
S11309F088BB0BC0FE01E60FF11D818185BB05C0DC
S1130A00FE01E60FF11D818182BB2A960FB6F89490
S1130A10DEBF0FBECDBFDF91CF9108950E942E029D
S1130A200895CF93C82F64E041E00E94B6008C2F54
S1130A3065E041E00E94B6008C2F66E041E00E9430
S1130A40B6008C2F67E041E00E94B600CF91089574
S1130A50CF93C82F60E041E00E94B6008C2F61E084
S1130A6041E00E94B6008C2F62E041E00E94B60093
S1130A708C2F63E041E00E94B600CF910895662375
S1130A8009F444C0613009F079C04A3008F076C0F6
S1130A90843499F1853440F48234E9F0833420F5C8
S1130AA0813409F06BC00EC08236A9F0833620F47D
S1130AB0813609F063C006C08336B1F0843609F08C
S1130AC05DC01BC08BB38F708BBB4295407F8BB3D3
S1130AD0482B4BBB089588B38F7088BB4295407FE9
S1130AE088B3482B48BB089585B38F7085BB429566
S1130AF0407F85B3482B45BB089582B38F7082BB7A
S1130B004295407F82B3482B42BB08954A30B0F5EA
S1130B10843469F1853438F48234C9F08334F8F4C8
S1130B20813461F50CC0823691F0833618F4813635
S1130B3029F505C0833699F0843601F518C08BB3C6
S1130B40807F8BBB8BB34F70482B4BBB089588B30E
S1130B50807F88BB88B34F70482B48BB089585B30A
S1130B60807F85BB85B34F70482B45BB089582B306
S1130B70807F82BB82B34F70482B42BB08956623AB
S1130B8031F0613041F448E00E943F05089560E08F
S1130B9048E00E943F050895CF93C82F6623B1F023
S1130BA0613039F564E040E00E94B6008C2F65E0C6
S1130BB040E00E94B6008C2F66E040E00E94B60040
S1130BC08C2F67E040E00E94B60013C060E040E074
S1130BD00E94B6008C2F61E040E00E94B6008C2F8A
S1130BE062E040E00E94B6008C2F63E040E00E9487
S1130BF0B600CF910895CF93C82F662381F1613059
S1130C0009F05AC00E94BF058FEF91EEA4E0815015
S1130C109040A040E1F700C000008C2F61E00E94EA
S1130C20CC058FEF91EEA4E081509040A040E1F715
S1130C3000C000008C2F64E041E00E94B6008C2FBD
S1130C4065E041E00E94B6008C2F66E041E00E941E
S1130C50B6008C2F67E041E00E94B6002DC060E032
S1130C600E94BF058FEF91EEA4E081509040A04018
S1130C70E1F700C000008C2F60E00E94CC058FEFEC
S1130C8091EEA4E081509040A040E1F700C0000044
S1130C908C2F60E041E00E94B6008C2F61E041E0BF
S1130CA00E94B6008C2F62E041E00E94B6008C2FB7
S1130CB063E041E00E94B600CF910895662309F1F4
S1130CC06130E9F58434D9F0853438F4823499F00C
S1130CD0833498F4813499F50CC0823661F08336FC
S1130CE018F4813661F505C0833639F0843639F558
S1130CF006C08BB3089588B3089585B3089582B36D
S1130D0008958434D9F0853438F4823499F08334E6
S1130D1098F48134A1F40CC0823661F0833618F45F
S1130D20813669F405C0833639F0843641F406C04F
S1130D308BB3089588B3089585B3089582B3089555
S1130D400E949400089583E690E00E9428050E9482
S1130D50A00681E00E94BE038AE690E00E946E0431
S1130D600F2EFAE0EF2EFF24F02D0F2EF4E62F2E97
S1130D703324F02D0F2EF8EECF2EF3E0DF2EF02DDE
S1130D8000E0BB246894B1F80F2EF3E0AF2EF02DF1
S1130D909924689492F80F2EF5E08F2EF02D0F2EE3
S1130DA0F6E07F2EF02D0F2EF7E06F2EF02D552458
S1130DB0689453F80E944900BC0180E090E00E94CE
S1130DC0EE0820E030E040E250E40E9454090E9422
S1130DD0C208DC01CB01EC0183E0C83ED80708F46B
S1130DE004C181E06CE00E947E04CE01885E9340E1
S1130DF0B7010E94DF09EB016A307105A8F4CB0149
S1130E00B7010E94DF09805D61E00E943C048FED20
S1130E1061E00E943C0483E661E00E943C0480E2BD
S1130E2061E00E943C0468C1CB010A9780319105BE
S1130E30E0F4CB01B7010E94DF09C82F862F805D43
S1130E4061E00E943C048C2F805D61E00E943C04C0
S1130E508FED61E00E943C0483E661E00E943C0463
S1130E6080E261E00E943C0451C1CB014A978F307B
S1130E709105E0F4CB01B7010E94DF09C82F862F4A
S1130E80805D61E00E943C048C2F805D61E00E94E3
S1130E903C048FED61E00E943C0483E661E00E9423
S1130EA03C0480E261E00E943C043AC1CB01899792
S1130EB088329105E0F4CB01B7010E94DF09C82F05
S1130EC0862F805D61E00E943C048C2F805D61E090
S1130ED00E943C048FED61E00E943C0483E661E0E3
S1130EE00E943C0480E261E00E943C0423C1CB01E7
S1130EF08155904083319105E0F4CB01B7010E9404
S1130F00DF09C82F862F805D61E00E943C048C2F8E
S1130F10805D61E00E943C048FED61E00E943C042E
S1130F2083E661E00E943C0480E261E00E943C04AC
S1130F300BC1CB01845690408531910540F5CB011E
S1130F40B1010E94DF09862F805D61E00E943C04AC
S1130F50CE01B7010E94DF09C82FCB01B7010E945F
S1130F60DF09805D61E00E943C048C2F805D61E0BC
S1130F700E943C048FED61E00E943C0483E661E042
S1130F800E943C0480E261E00E943C04E7C069578F
S1130F9070406E31710508F074C0CE01B1010E9439
S1130FA0DF09862F805D61E00E943C04CE01B70119
S1130FB00E94DF09C82FCB01B7010E94DF09805DC1
S1130FC061E00E943C048C2F805D61E00E943C043F
S1130FD08FED61E00E943C0483E661E00E943C04E2
S1130FE080E261E00E943C04C3C081E06CE00E94A6
S1130FF07E04C6018C1B9D0BB7010E94DF09EB0127
S11310006A307105C8F48DE261E00E943C04CE01AF
S1131010B7010E94DF09805D61E00E943C048FED0E
S113102061E00E943C0483E661E00E943C0480E2AB
S113103061E00E943C0456C06A5070406E327105F3
S113104000F58DE261E00E943C04CE01B7010E94EC
S1131050DF09C82F862F805D61E00E943C048C2F3D
S1131060805D61E00E943C048FED61E00E943C04DD
S113107083E661E00E943C0480E261E00E943C045B
S113108027C08FED61E00E943C0483E661E00E948A
S11310903C0480E261E00E943C04143009F440C046
S11310A0153050F41130F1F0113090F0123021F17C
S11310B0133009F07FCE2AC0163009F445C016302B
S11310C0C8F1173009F44AC0183009F073CE50C083
S11310D083E690E060E070E040E050E00E943F056D
S11310E0102F68CE83E690E060E070E041E050E0CD
S11310F00E943F0511E05ECE83E690E060E070E080
S113110042E050E00E943F051B2D54CE83E690E060
S113111060E070E043E050E00E943F051A2D4ACEA3
S113112083E690E060E070E044E050E00E943F0518
S1131130192D40CE83E690E060E070E045E050E099
S11311400E943F05182D36CE83E690E060E070E003
S113115046E050E00E943F05172D2CCE83E690E038
S113116060E070E047E050E00E943F05162D22CE7B
S113117083E690E060E070E048E050E00E943F05C4
S1131180152D18CE70D088F09F5790F0B92F99275D
S1131190B751A0F0D1F0660F771F881F991F1AF07E
S11311A0BA95C9F712C0B13081F077D0B1E0089593
S11311B074C0672F782F8827B85F39F0B93FCCF314
S11311C0869577956795B395D9F73EF49095809574
S11311D0709561957F4F8F4F9F4F0895E89409C094
S11311E097FB3EF490958095709561957F4F8F4F56
S11311F09F4F9923A9F0F92F96E9BB279395F6956C
S1131200879577956795B795F111F8CFFAF4BB0FE9
S113121011F460FF1BC06F5F7F4F8F4F9F4F16C04D
S1131220882311F096E911C0772321F09EE8872FD7
S1131230762F05C0662371F096E8862F70E060E093
S11312402AF09A95660F771F881FDAF7880F96950C
S1131250879597F9089557FD9058440F551F59F0F5
S11312605F3F71F04795880F97FB991F61F09F3F8F
S113127079F087950895121613061406551FF2CFB8
S11312804695F1DF08C0161617061806991FF1CF08
S113129086957105610508940895E894BB2766272F
S11312A07727CB0197F908950BD078C069D028F03F
S11312B06ED018F0952309F05AC05FC01124EECF08
S11312C0CADFA0F3959FD1F3950F50E0551F629F9D
S11312D0F001729FBB27F00DB11D639FAA27F00D8B
S11312E0B11DAA1F649F6627B00DA11D661F829FB2
S11312F02227B00DA11D621F739FB00DA11D621F97
S1131300839FA00D611D221F749F3327A00D611DB3
S1131310231F849F600D211D822F762F6A2F112495
S11313209F5750408AF0E1F088234AF0EE0FFF1FE8
S1131330BB1F661F771F881F91505040A9F79E3F1F
S1131340510570F014C0AACF5F3FECF3983EDCF374
S1131350869577956795B795F795E7959F5FC1F75C
S1131360FE2B880F911D9695879597F9089597F907
S11313709F6780E870E060E008959FEF80EC089537
S113138000240A9416161706180609060895002460
S11313900A9412161306140605060895092E0394DA
S11313A0000C11F4882352F0BB0F40F4BF2B11F44E
S11313B060FF04C06F5F7F4F8F4F9F4F0895AA1B3C
S11313C0BB1B51E107C0AA1FBB1FA617B70710F02C
S11313D0A61BB70B881F991F5A95A9F7809590955E
S10D13E0BC01CD010895F894FFCF7D
S11313EA3F065B4F666D7D077F6F54454D505241F2
S10913FA545552453D006C
S9030000FC
